:020000040800F2
:1000000060050020A14100086D4000086F40000815
:1000100071400008734000087540000800000000AF
:100020000000000000000000000000007740000811
:1000300079400008000000007B4000087D40000877
:10004000D9410008DD410008E1410008E541000810
:10005000E9410008ED410008F1410008F5410008C0
:10006000F9410008FD41000801420008054200086E
:10007000094200080D42000811420008154200081C
:10008000194200081D4200082142000825420008CC
:1000900089400008294200082D420008314200082A
:1000A00035420008394200083D420008414200083C
:1000B00045420008494200084D42000851420008EC
:1000C00055420008594200085D420008614200089C
:1000D00065420008694200086D420008714200084C
:1000E00075420008794200087D4200080EB40020E5
:1000F00003B0704700214FF43F41B0F84020114356
:10010000A0F840100020704700214FF43D41B0F8A6
:10011000402032EA0101A0F8401000207047002082
:1001200070470EB400B50121A0F840100021A0F8DE
:1001300040100021A0F844100021A0F85010FFF753
:10014000D9FF00205DF810FB10B4CA78002A05D052
:10015000022A0FD024D3032A16D02DE00A7830F8D3
:10016000222048F68F131A4052F400720B7820F8C0
:10017000232021E00A7830F8222048F68F131A4015
:100180000B7820F8232017E00A7830F8222048F670
:100190008F131A4052F4C0620B7820F823200BE032
:1001A0000A7830F8222048F68F131A4052F4806201
:1001B0000B7820F82320FFE70A7830F8222048F651
:1001C0008F731A400B781A4342F4004252F08002B7
:1001D0000B7820F823208A7A002A40F089804A7818
:1001E000002A30D0B0F850200B7812EBC30210EB8D
:1001F000420212F580628B889BB25B089BB25B0067
:1002000013600A7830F8222052060CD50A7830F8AC
:10021000222048F68F731A4042F4004252F0C00286
:100220000B7820F823200A7830F8222048F6BF7394
:100230001A4092F0200242F4004252F08002097803
:1002400020F821201DE1B0F850200B7812EBC302FA
:1002500010EB420212F581628B889BB25B089BB265
:100260005B001360B0F850200B7812EBC30210EB68
:10027000420202F20C420B693F2B0CD30B695B0963
:100280000C7C14F01F0F00D15B1E9B0253F4004343
:100290009BB2136008E00B695B080C7CE40700D597
:1002A0005B1C9B029BB213600A7830F82220520438
:1002B0000CD50A7830F8222048F68F731A4042F4A1
:1002C000404252F080020B7820F823200A7830F860
:1002D00022204BF68F731A4092F4805292F400520F
:1002E00042F4004252F08002097820F82120C8E050
:1002F0000A7830F8222048F68F731A4042F40142FF
:1003000052F080020B7820F82320B0F850200B78B0
:1003100012EBC30210EB420212F58062CB889BB253
:100320005B089BB25B001360B0F850200B7812EBB7
:10033000C30210EB420212F581620B899BB25B088B
:100340009BB25B0013604A78002A4FD10A7830F8DC
:10035000222052040CD50A7830F8222048F68F73F8
:100360001A4042F4404252F080020B7820F82320D9
:100370000A7830F8222052060CD50A7830F822206C
:1003800048F68F731A4042F4004252F0C0020B78D4
:1003900020F823200A7830F8222048F68F731A407C
:1003A00042F4004252F0C0020B7820F823200A7871
:1003B00030F822204BF68F731A4092F4805292F458
:1003C000005242F4004252F080020B7820F82320C1
:1003D0000A7830F8222048F6BF731A4042F40042EF
:1003E00052F08002097820F821204AE00A7830F89B
:1003F000222052040CD50A7830F8222048F68F7358
:100400001A4042F4404252F080020B7820F8232038
:100410000A7830F8222052060CD50A7830F82220CB
:1004200048F68F731A4042F4004252F0C0020B7833
:1004300020F823200A7830F8222048F68F731A40DB
:1004400042F4404252F080020B7820F823200A78D0
:1004500030F8222048F6BF731A4042F4004252F0AE
:1004600080020B7820F823200A7830F822204BF6FF
:100470008F731A4042F4004252F08002097820F84B
:100480002120002010BC70478A7A002A42D14A7885
:10049000002A1FD00A7830F8222052060CD50A789C
:1004A00030F8222048F68F731A4042F4004252F08E
:1004B000C0020B7820F823200A7830F8222048F672
:1004C000BF731A4042F4004252F08002097820F8CB
:1004D0002120B9E00A7830F8222052040CD50A789D
:1004E00030F8222048F68F731A4042F4404252F00E
:1004F00080020B7820F823200A7830F822204BF66F
:100500008F731A4042F4004252F08002097820F8BA
:10051000212099E04A78002A4BD10A7830F822202D
:1005200052040CD50A7830F8222048F68F731A400E
:1005300042F4404252F080020B7820F823200A78DF
:1005400030F8222052060CD50A7830F8222048F6DE
:100550008F731A4042F4004252F0C0020B7820F828
:1005600023200A7830F8222048F68F731A4042F48C
:10057000004252F0C0020B7820F823200A7830F8AD
:1005800022204BF68F731A4042F4004252F0800250
:100590000B7820F823200A7830F8222048F6BF7321
:1005A0001A4042F4004252F08002097820F82120DB
:1005B0004AE00A7830F8222052040CD50A7830F844
:1005C000222048F68F731A4042F4404252F08002D3
:1005D0000B7820F823200A7830F8222052060CD518
:1005E0000A7830F8222048F68F731A4042F400420D
:1005F00052F0C0020B7820F823200A7830F822202D
:1006000048F68F731A4042F4404252F080020B7851
:1006100020F823200A7830F8222048F6BF731A40C9
:1006200042F4004252F080020B7820F823200A782E
:1006300030F822204BF68F731A4042F4004252F0F9
:100640008002097820F821200020704770B504004E
:100650000D000022AE696878012840F0BC8028694E
:10066000A969884204D22E69A869801BA86102E0AA
:10067000AE690020A861A87A002810D133009BB28F
:10068000AA886969200000F0D8F9B4F850002978E8
:1006900010EBC10014EB4000C0F8046489E0287836
:1006A00034F8200040062ED5687800281DD1B4F813
:1006B0005000297810EBC10014EB400000F20C4010
:1006C0003F2E0AD3710916F01F0F00D1491E89026F
:1006D00051F4004189B2016013E07108F20700D5BE
:1006E000491C890289B201600BE06878012808D1B1
:1006F000B4F85000297810EBC10014EB4000C0F8AA
:1007000004642A892DE0687800281DD1B4F85000CF
:10071000297810EBC10014EB400000F204403F2E9A
:100720000AD3710916F01F0F00D1491E890251F436
:10073000004189B2016013E07108F20700D5491C3D
:10074000890289B201600BE06878012808D1B4F809
:100750005000297810EBC10014EB4000C0F804648D
:10076000EA8833009BB292B26969200000F065F913
:10077000687800280DD1287834F8200048F68F7169
:10078000084040F4004050F0C000297824F82100CF
:100790000FE0687801280CD1287834F8200048F65A
:1007A0008F71084040F4404050F08000297824F8D0
:1007B0002100287834F8200048F6BF71084090F0F6
:1007C000100090F0200040F4004050F080002978A4
:1007D00024F8210097E02869A969884204D22E698B
:1007E000A869801BA86102E0AE690020A861A87A10
:1007F00000281DD1B4F85000297810EBC10014EB8B
:10080000400000F20C403F2E0AD3710916F01F0F72
:1008100000D1491E890251F4004189B2016061E0B2
:100820007108F20700D5491C890289B2016059E0BC
:10083000687800281DD1B4F85000297810EBC10069
:1008400014EB400000F204403F2E0AD3710916F069
:100850001F0F00D1491E890251F4004189B2016085
:1008600013E07108F20700D5491C890289B20160C2
:100870000BE06878012808D1B4F85000297810EB13
:10088000C10014EB4000C0F80464687800281DD152
:10089000B4F85000297810EBC10014EB400000F2CE
:1008A0000C403F2E0AD3710916F01F0F00D1491ECC
:1008B000890251F4004189B2016013E07108F20726
:1008C00000D5491C890289B201600BE068780128D3
:1008D00008D1B4F85000297810EBC10014EB4000A7
:1008E000C0F80464287834F820004BF68F71084073
:1008F00090F4805090F4005040F4004050F080009C
:10090000297824F82100002070BD0A78002A11D12E
:100910000A7830F822204BF6BF731A4092F48052C6
:1009200092F0100242F4004252F08002097820F85E
:10093000212021E04A78002A0FD00A7830F82220BE
:1009400048F6BF731A4092F0100242F4004252F08F
:100950008002097820F821200EE00A7830F8222061
:100960004BF68F731A4092F4805242F4004252F0D8
:100970008002097820F82120002070474A78002A58
:1009800023D00A7830F8222052060CD50A7830F8A5
:10099000222048F68F731A4042F4004252F0C002FF
:1009A0000B7820F823200A7830F8222048F6BF730D
:1009B0001A4092F0100292F0200242F4004252F0EB
:1009C0008002097820F8212022E00A7830F82220DD
:1009D00052040CD50A7830F8222048F68F731A405A
:1009E00042F4404252F080020B7820F823200A782B
:1009F00030F822204BF68F731A4092F4805292F412
:100A0000005242F4004252F08002097820F821207E
:100A100000207047C9B2002902D18021A0F84C10F3
:100A20000020704700207047002070470021B0F878
:100A30004410080070470020704770B49BB25B1CE4
:100A40005B10002400250025002692B210EB420026
:100A500010F580661C0009E00D78491C087855EAFD
:100A600000253580B61CB61C491C641E002CF3D131
:100A700070BC704730B49BB25B1C5B100024002537
:100A800092B210EB420010F580651C0005E028686A
:100A900008802D1D491C491C641E002CF7D130BC58
:100AA000704710B586B004000020002C01D1012051
:100AB00078E094F82904002805D1002084F828045F
:100AC000200000F08BFC032084F829042068FFF745
:100AD0001BFB211D83B06846202200F065FE0EBC82
:100AE0002068FFF703FB00212068FFF718FB0020B8
:100AF0001DE0012114EB401282F8291014EB401183
:100B000081F8280014EB40118886002114EB401274
:100B100082F82B10002114EB40129163002114EB9A
:100B20004012D163002114EB40121164401C0F28C5
:100B3000DFD3002020E0002114EB401282F82912BC
:100B400014EB401181F8280214EB40118886002133
:100B500014EB401282F82B12002114EB4012C2F861
:100B60003812002114EB4012C2F83C12002114EBA1
:100B70004012C2F84012401C0F28DCD3211D83B064
:100B80006846202200F010FE0EBC2068FFF7C9FA6C
:100B9000002084F82400012084F829042068FFF74D
:100BA00043FF002006B010BD10B5040094F82804DF
:100BB000012801D1022010E0012084F8280401213D
:100BC000200000F0F0FD2068FFF72CFF2068FFF701
:100BD00091FA002084F82804002010BD10B504000C
:100BE0002068FFF723FF000402D5200000F0B6F9CB
:100BF0002068FFF71BFF40050FD52068B0F84400C0
:100C00004FF6FF3108402168A1F84400200000F0B1
:100C100028FC0021200000F085F82068FFF706FF7F
:100C2000400408D52068B0F844004BF6FF71084036
:100C30002168A1F844002068FFF7F8FE800408D579
:100C40002068B0F844004DF6FF7108402168A1F813
:100C500044002068FFF7EAFEC0041DD52068B0F804
:100C600040004FF6FB7108402168A1F84000206861
:100C7000B0F840004FF6F77108402168A1F8400035
:100C8000200000F013FC2068B0F844004EF6FF711D
:100C900008402168A1F844002068FFF7C7FE00055E
:100CA00020D52068B0F8400050F008002168A1F875
:100CB00040002068B0F844004FF2FF7108402168FE
:100CC000A1F844002068B0F8400050F0040021680A
:100CD000A1F840002068FFF7A9FEC00402D420005C
:100CE00000F0D2FB2068FFF7A1FE80050BD520683D
:100CF000B0F844004FF6FF5108402168A1F84400C5
:100D0000200000F0A8FB2068FFF790FEC00508D582
:100D10002068B0F844004FF6FF6108402168A1F850
:100D2000440010BD10B5040094F82804012801D136
:100D300002200CE0012084F8280484F82410C9B2B1
:100D40002068FFF767FE002084F82804002010BD0B
:100D500070B5040000250020C9B2080606D5C9B246
:100D600011F07F0014EB4010283006E0C9B211F0FA
:100D70007F0014EB401010F50A7011F07F0606702A
:100D8000C9B2C909417092B20261C37094F82814C3
:100D9000012901D102200BE0012184F8281401006F
:100DA0002068FFF7D1F9002084F828042800C0B299
:100DB00070BD10B504000020C9B2080606D5C9B23E
:100DC00011F07F0014EB4010283006E0C9B211F09A
:100DD0007F0014EB401010F50A7011F07F020270D2
:100DE000C9B2C909417094F82814012901D102201F
:100DF0000AE0012184F8281401002068FFF744FB71
:100E0000002084F82804002010BD10B50024C9B2C9
:100E100011F07F0410EB441414F50A746261A361AD
:100E20000022E2610022627011F07F0222707F22B4
:100E3000114204D121000068FFF708FC03E0210003
:100E40000068FFF703FC002010BDC9B211F00F01CC
:100E500010EB4110D0F8440280B2704710B5002466
:100E6000C9B211F07F0410EB441428346261A3610D
:100E70000022E2610122627011F07F0222707F2263
:100E8000114204D121000068FFF7E0FB03E02100DC
:100E90000068FFF7DBFB002010BD38B504000D0033
:100EA0000021EDB2280607D5EDB215F07F0014EB56
:100EB000401010F1280104E0EDB214EB451010F5DC
:100EC0000A710120887015F07F000870EDB2E80902
:100ED000487094F82804012801D1022011E0012073
:100EE00084F828042068FFF710FD7F20054204D114
:100EF00004F22C412068FFF79EFD002084F82804AE
:100F0000002032BD10B504000020C9B2080606D585
:100F1000C9B211F07F0014EB4010283004E0C9B2D0
:100F200014EB411010F50A700022827011F07F025C
:100F30000270C9B2C909417094F82814012901D17D
:100F400002200AE0012184F8281401002068FFF73C
:100F500015FD002084F82804002010BDF8B5040019
:100F60000025002700260020ADF802000020ADF883
:100F700000002FE02068008848F60F7108402168C3
:100F8000088014F128052068B0F85000297810EB8B
:100F9000C100216811EB4000D0F804048005800DE9
:100FA000E8616869E969081868610021200000F0BB
:100FB00047FA94F8240000280CD0A869002809D129
:100FC00094F8240050F080002168A1F84C00002023
:100FD00084F824002068B0F84400ADF80200000452
:100FE00040F1BF81BDF8020010F00F06F6B2002EEE
:100FF00040F08B80BDF80200C006BBD514F50A7521
:1010000020680088ADF80000BDF80000000520D57C
:101010002068B0F85000297810EBC100216811EB6E
:101020004000D0F80C048005800DE861EB699BB2AC
:10103000AA8804F22C412068FFF71CFD2068008874
:1010400040F68F71084021680880200000F0E4F924
:10105000C0E7BDF800000004BCD52068008840F659
:101060008F710840216808802068B0F85000297806
:1010700010EBC100216811EB4000D0F80C04800592
:10108000800DE861E86900280AD0EB699BB2AA8864
:1010900069692068FFF7EEFC6869E969081868610A
:1010A0000021200000F0C0F92068B0F8500021684D
:1010B00011EB400000F20C4029693F290CD329694B
:1010C00049092A7C12F01F0F00D1491E890251F4F0
:1010D000004189B2016008E0296949082A7CD207E9
:1010E00000D5491C890289B20160206800884BF64E
:1010F0008F71084090F4805090F4005040F400400C
:1011000050F080002168088064E72068F6B230F86B
:101110002600ADF80000BDF80000000440F1898011
:101120002068F6B230F8260040F68F71084021683A
:10113000F6B221F82600F6B214EB461010F50A7547
:10114000A87A002817D12068B0F85000297810EB51
:10115000C100216811EB4000D0F80C048705BF0DD9
:10116000BFB2002F4BD03B009BB2AA8869692068B0
:10117000FFF780FC43E02068297830F82100400424
:1011800017D52068B0F85000297810EBC10021680D
:1011900011EB4000D0F804048705BF0DBFB2002F4B
:1011A0001ED03B009BB2EA8869692068FFF762FCA9
:1011B00016E02068B0F85000297810EBC1002168D3
:1011C00011EB4000D0F80C048705BF0DBFB2002F13
:1011D00006D03B009BB22A8969692068FFF74AFC68
:1011E0002068297830F8210048F68F71084040F4D3
:1011F000004050F0C00021682A7821F82200E869F8
:10120000BFB23818E8616869BFB238186861A86968
:10121000002803D0BFB22869874204D22978200071
:1012200000F002F905E0AB696A6929782000FFF750
:10123000ECFDBDF8000000067FF5CCAEF6B214EB75
:10124000461010F128052068F6B230F8260048F65E
:101250000F7108402168F6B221F82600A87A00280C
:1012600018D12068B0F85000297810EBC10021682F
:1012700011EB4000D0F804048005800DE861E869B6
:1012800000284DD0EB699BB2AA8869692068FFF7F6
:10129000D4FB45E02068297830F82100400618D5B5
:1012A0002068B0F85000297810EBC100216811EBDC
:1012B0004000D0F804048005800DE861E86900284A
:1012C0001FD0EB699BB2EA8869692068FFF7B5FB1C
:1012D00017E02068B0F85000297810EBC1002168B1
:1012E00011EB4000D0F80C048005800DE861E8693E
:1012F000002806D0EB699BB22A8969692068FFF74C
:101300009CFB2068297830F8210048F68F7108404E
:1013100040F4404050F0800021682A7821F82200F3
:101320002068B0F85000297810EBC100216811EB5B
:101330004000D0F804048005800DE8616869E9691F
:1013400008186861A869002804D12978200000F0F5
:1013500077F83FE6AB696A6929782000FFF77EFDE0
:1013600038E60020F2BDF0B40168446883680918CB
:1013700001EB5402E40748BF4B440C3091422BD0A0
:1013800011F8014B14F0030504BF11F8015BED1CCB
:1013900026090F2E07D111F8016B0F3603E011F863
:1013A000017B03F8017B6D1EF9D1002EE6D0A40865
:1013B00011F8015B04F00304032C08BF11F8014B82
:1013C00005EB04241C1BB51CD8D014F8016B03F8E2
:1013D000016B6D1EF9D1D1E7F0BC704780B5006894
:1013E000DFF8A813884216D1DFF8A403006850F490
:1013F0000000DFF89C130860DFF89403006810F425
:1014000000000090009800220021142000F060FAF3
:10141000142000F06EFA01BD80B500F22C41D0F826
:101420005C0400F0D6FA01BD80B5C9B210EB4112E0
:10143000D2F83C22C9B2D0F85C0400F0FDFA01BD3C
:1014400080B5C9B210EB4112D26BC9B2D0F85C04BE
:1014500000F037FB01BD80B5D0F85C0400F0D4FB90
:1014600001BD10B504000121A068022801D10121AD
:1014700000E00121C9B2D4F85C0400F0B3FBD4F859
:101480005C0400F08CFB10BD10B50400D4F85C04C3
:1014900000F0ABFBA069002807D0DFF8F802006875
:1014A00050F00600DFF8EC12086010BD80B5D0F8EF
:1014B0005C0400F0A3FB01BD10B50400DFF8D80206
:1014C000C0F85C44DFF8D002C4F82002DFF8BC02A8
:1014D000DFF8C41208600820DFF8BC124860022060
:1014E000DFF8B41288600320DFF8AC12C860002077
:1014F000DFF8A41288610020DFF89C12C861002088
:10150000DFF894120862DFF89002FFF7CAFA0028A9
:1015100005D04FF48D71DFF8840200F06DFC1823C4
:1015200000220021D4F8200200F067FC582300229A
:101530008021D4F8200200F060FCC0230022812129
:10154000D4F8200200F059FC4FF4887300220121E6
:10155000D4F8200200F051FC4FF480730022822165
:10156000D4F8200200F049FC002010BD80B5010035
:1015700000200020D1F82002FFF716FBC0B200289F
:1015800005D0022807D004D3032806D007E00020A6
:1015900006E0022004E0012002E0022000E0022038
:1015A000C0B202BD10B51C00002300231300DBB243
:1015B000220092B2C9B2D0F82002FFF7C9FB0300A3
:1015C000DBB2002B05D0022B07D004D3032B06D0AF
:1015D00007E0002306E0022304E0012302E00223E7
:1015E00000E002231800C0B210BD80B50200002048
:1015F0000020C9B2D2F82002FFF7DBFBC0B20028FE
:1016000005D0022807D004D3032806D007E0002025
:1016100006E0022004E0012002E0022000E00220B7
:10162000C0B202BD80B5020000200020C9B2D2F8CD
:101630002002FFF732FCC0B2002805D0022807D0F4
:1016400004D3032806D007E0002006E0022004E0CF
:10165000012002E0022000E00220C0B202BD80B5FD
:10166000020000200020C9B2D2F82002FFF74AFC95
:10167000C0B2002805D0022807D004D3032806D022
:1016800007E0002006E0022004E0012002E0022042
:1016900000E00220C0B202BDD0F82002C9B20A06A2
:1016A00007D5C9B211F07F0110EB411090F82A0064
:1016B00006E0C9B211F07F0110EB411090F82A0248
:1016C000704780B5020000200020C9B2D2F8200285
:1016D000FFF728FBC0B2002805D0022807D004D3AA
:1016E000032806D007E0002006E0022004E00120E5
:1016F00002E0022000E00220C0B202BD10B50024CA
:1017000000249BB2C9B2D0F82002FFF7A7FB040067
:10171000E4B2002C05D0022C07D004D3032C06D051
:1017200007E0002406E0022404E0012402E0022491
:1017300000E002242000C0B210BD10B50024002437
:101740009BB2C9B2D0F82002FFF75FFB0400E4B2FD
:10175000002C05D0022C07D004D3032C06D007E0C0
:10176000002406E0022404E0012402E0022400E058
:1017700002242000C0B210BD80B5C9B2D0F820024A
:10178000FFF763FB02BD064870470000005C0040A5
:101790001C10024010ED00E060150020903F000892
:1017A000E41B002070477047103A07D330B4B1E80B
:1017B0003810103AA0E83810F9D230BC530724BFD3
:1017C000B1E80810A0E8081044BF51F8043B40F805
:1017D000043BD20724BF31F8022B20F8022B44BF70
:1017E0000B7803707047083A07D3B1E80810083A3D
:1017F00040F8043B40F804CBF7D25307E4E701027A
:1018000010F00701474800684FF6FF021040464AB3
:1018100052EA012108434349086070474148006883
:10182000C0F302207047012110F01F0291403F4A8F
:1018300040B2400942F82010704740B2002808D555
:1018400009013B4A40B210F00F00801800F8041C58
:1018500003E00901374A40B28154704710B410F0D8
:101860000700D0F10703052B01D3042301E0D0F1D9
:101870000703041D072C01D2002000E0C01E012434
:1018800014FA03F35B1E19408140012313FA00F0A0
:10189000401E1040084310BC704780B5411EB1F196
:1018A000807F01D301200EE0401E234908600F21F4
:1018B0005FF0FF30FFF7C1FF0020204908600720DC
:1018C0001F490860002002BD80B5FFF799FF01BDE8
:1018D00070B504000D0016000020FFF79FFF3200D6
:1018E0002900FFF7BBFF0100200040B2FFF7A5FF72
:1018F00070BD80B540B2FFF796FF01BD80B5FFF720
:10190000CCFF02BD042806D10D48006850F0040049
:101910000B49086005E00A48006830F004000849F7
:10192000086070470CED00E00000FA0500E100E0FF
:1019300018ED00E000E400E014E000E018E000E052
:1019400010E000E080B500F079FA01BD80B5002814
:1019500001D1022011E0D0F81432002B02D0002374
:10196000C0F81432002901D0C0F81012012180F80B
:10197000FC110270FFF7A0FD002002BD002200292B
:1019800003D0C0F81412002200E002221000C0B2FE
:10199000704780B5FFF7EAFD002002BD00207047C8
:1019A00010B50224D0F81422002A07D0C9B2D0F80A
:1019B000142212689047002800D100242000C0B2F1
:1019C00010BD80B5C9B2D0F81422526890470020EB
:1019D00002BD10B5040014F5027000F0FBFC0120FC
:1019E000C4F8F401B4F80E02C4F8F80194F808023F
:1019F00010F01F00C0B2002803D002280DD006D37B
:101A000011E014F50271200000F042FA12E014F522
:101A10000271200000F068FA0CE014F50271200059
:101A200000F088FA06E094F8080210F08001200027
:101A3000FFF7F8FD002010BD10B5040008001100EC
:101A4000C0B200282BD114F58270D4F8F421032AF7
:101A500035D1C26883689A420FD28268C368D21AAD
:101A600082608268C3689A4201D2826800E0C268DC
:101A700092B2200000F025FD21E0D4F814020069A4
:101A8000002808D094F8FC01032804D12000D4F8E1
:101A9000141209698847200000F01CFD0FE0D4F8FB
:101AA0001412896900290AD094F8FC11032906D17F
:101AB0000100C9B22000D4F8142292699047002096
:101AC00010BD10B504001000C9B2002956D114F1A0
:101AD0001401D4F8F421022A45D1CA688B689A42CD
:101AE00010D28A68CB68D21A8A608A6892B20100E2
:101AF000200000F0CBFC0023002200212000FFF793
:101B00001CFE30E04868CA68B0FBF2F302FB130029
:101B1000002817D14868CA68904213D34868D4F89F
:101B2000F81188420ED200220021200000F0AEFC05
:101B30000020C4F8F8010023002200212000FFF754
:101B4000FCFD10E0D4F81402C068002808D094F816
:101B5000FC01032804D12000D4F81412C968884776
:101B6000200000F0C2FC94F80002012815D12000EA
:101B7000FFF714FF002084F800020EE0D4F81402EE
:101B80004069002809D094F8FC01032805D1C9B2A6
:101B90002000D4F8142252699047002010BD10B5DF
:101BA00004004023002200212000FFF7FBFC40201E
:101BB000C4F810014023002280212000FFF7F2FC2E
:101BC00040202062012084F8FC01D4F8180200288B
:101BD00006D06168C9B22000D4F814225268904738
:101BE000002010BD01740020704790F8FC1180F8AF
:101BF000FD11042180F8FC110020704790F8FD11C0
:101C000080F8FC110020704780B590F8FC11032982
:101C100008D1D0F81412C969002903D0D0F81412E1
:101C2000C9698847002002BD80B500F069FC00F05A
:101C300009F800F074F800F0A9FC00F05AF800F080
:101C40000FF9FCE700B593B0092009905FF48030EC
:101C50000A9000200B9001200D9001200F9002208F
:101C600010905FF4803011905FF48010129009A8FA
:101C700000F0A6FC002803D08821594800F0BCF8E9
:101C80000F20049002200590002006904FF4806001
:101C9000079000200890012104A800F0BAFE002857
:101CA00003D096214E4800F0A7F8112000904FF481
:101CB000007001905FF480000390684600F0DEFF42
:101CC000002803D09E21464800F096F800F094FFCB
:101CD0004FF47A71B0FBF1F0FFF710FE0420FFF72C
:101CE00011FE002200215FF0FF30FFF7F1FD13B07D
:101CF00000BD80B53B483C4908605FF0FF303A4981
:101D000048604FF4807038498860374801F0C2F865
:101D1000002803D0B821324800F06EF801BD00B5AC
:101D200085B03248006850F01000304908602F48F4
:101D3000006810F01000009000982C48006850F0E7
:101D400020002A4908602948006810F0200000900F
:101D500000982648006850F0040024490860234891
:101D6000006810F00400009000982048006850F0CF
:101D700008001E4908601D48006810F00800009027
:101D8000009800224FF40051194801F02FFA002268
:101D90004FF46071174801F029FA4FF40050019098
:101DA000012002900320049001A9114801F03AF9A2
:101DB00060200190002002900120039001A90D48AD
:101DC00001F030F94FF4647001900120029003207B
:101DD000049001A9074801F025F905B000BD0000F5
:101DE000E03F000800280040742000201810024046
:101DF00000100140000C0140FEE710B4002489B23D
:101E00000C0607D589B211F07F0110EB411010F1DB
:101E1000280404E089B210EB411010F50A7492B264
:101E2000002A03D10020A072A38004E00120A07248
:101E3000E380180C2081002010BC704780B5124848
:101E40000088401C104908800F480088642806D18B
:101E500000200D49088001F064FB01F0A4FB01BDE6
:101E600080B50A480078002802D001280AD00AE08C
:101E700001F0E6F901F044FA01F048FB01200349C2
:101E8000087000E0FFE701BD8C2000208E200020BC
:101E900010B500244A78002A18D0012A1CD0032A41
:101EA00017D0052A09D0062A04D0082A0BD0092AFF
:101EB00006D014E000F0EBF813E000F08EF910E02B
:101EC00000F0B7F90DE000F023FA0AE000F03EFA66
:101ED00007E000F054FA04E000F062FA01E000F0DC
:101EE0008DFA2000C0B210BD70B504000D000026B0
:101EF00094F8FC01032817D1287902280FDA290069
:101F00002000D4F8142292689047E88800280AD16B
:101F1000F6B2002E07D1200000F0DCFA03E0290021
:101F2000200000F06BFA03E02900200000F066FAC0
:101F3000002070BD70B505000E000024B188307817
:101F400010F06000202807D131002800D5F81422B5
:101F500092689047002099E0707800285DD00128B1
:101F600030D0032840F0908095F8FC01022802D080
:101F700003280BD021E0C9B2002906D0C9B28029BC
:101F800003D0C9B22800FFF74DFB1AE07088002883
:101F900009D1C9B2002906D0C9B2802903D0C9B27B
:101FA0002800FFF73FFB31002800D5F81422926883
:101FB0009047280000F08EFA03E03100280000F07E
:101FC0001DFA61E095F8FC01022802D003280BD02D
:101FD0001EE0C9B2002906D0C9B2802903D0C9B217
:101FE0002800FFF71FFB17E0708800280FD17F2023
:101FF000014209D0C9B22800FFF731FB31002800A7
:10200000D5F8142292689047280000F063FA03E0A4
:102010003100280000F0F2F936E095F8FC010228C2
:1020200002D0032808D02AE07F20014203D0C9B2A1
:102030002800FFF7F7FA26E0C9B2080607D5C9B2AB
:1020400011F07F0015EB001010F1140606E0C9B284
:1020500011F07F0015EB001010F58276C9B2280050
:10206000FFF71AFB002802D00120306001E00020B9
:10207000306002223100280000F0F8F903E031005E
:10208000280000F0BBF9FFE72000C0B270BD38B5F2
:1020900004000D00688880B2000AC0B2012808D090
:1020A00002281FD0032830D0062869D0072875D011
:1020B00084E06946207CD4F8102212689047BDF86D
:1020C0000010002900F08880E988002900F0848051
:1020D000BDF80010EA88914275D2BDF80010ADF845
:1020E000001073E0207C002807D16846D4F8141251
:1020F000896A88470221417006E06846D4F81412C4
:10210000C96A884702214170D9E7A878002808D019
:10211000022814D00CD304281FD017D3052823D0AD
:1021200029E06946207CD4F8102252689047C6E71F
:102130006946207CD4F8102292689047F7E76946F8
:10214000207CD4F81022D2689047F0E76946207CC2
:10215000D4F8102212699047E9E76946207CD4F848
:10216000102252699047E2E76946207CD4F8102299
:1021700092699047DBE72900200000F03FF92BE04F
:10218000207C002805D16846D4F81412496B884792
:1021900095E72900200000F031F91DE0207C00289F
:1021A00007D16846D4F81412096B8847072141709B
:1021B00085E72900200000F021F90DE0290020002A
:1021C00000F01CF908E0E988ADF80010BDF8002027
:1021D0000100200000F04AF931BD38B504008888BC
:1021E000002822D1C88800281FD1887810F07F05E8
:1021F00094F8FC01032803D1200000F0FFF817E059
:1022000084F8FE512900C9B22000FFF75AFA2000D5
:1022100000F060F9EDB2002D03D0022084F8FC013B
:1022200006E0012084F8FC0102E0200000F0E6F85E
:1022300031BD38B504000D00688834490870334852
:102240000078022804DB2900200000F0D7F85CE0C9
:1022500094F8FC01022802D003281ED051E02B483C
:102260000078002815D0294800786060032084F8A1
:10227000FC01264801782000FFF792FB022804D1D8
:102280002900200000F0BAF83FE0200000F022F919
:1022900002E0200000F01EF937E01C48007800281A
:1022A0000ED1022084F8FC011848007860601748BD
:1022B00001782000FFF785FB200000F00BF91FE0FC
:1022C000124800786168884217D06168C9B220005E
:1022D000FFF777FB0D48007860600C48017820001C
:1022E000FFF75EFB022804D12900200000F086F8E9
:1022F0000BE0200000F0EEF802E0200000F0EAF829
:1023000003E02900200000F079F831BD962000207C
:1023100080B5CA88012A02D000F070F815E090F864
:10232000FC21022A02D0032A08D00CE0002181609F
:10233000012210F1080100F099F806E00122011DC8
:1023400000F094F801E000F059F801BD80B590F874
:10235000FC21921E012A0FD80121C160D0F804127D
:10236000002903D0C16851F00201C160022210F1BE
:102370000C0100F07BF801E000F040F801BD10B561
:102380000400488801280AD10120C4F80402200072
:10239000D4F8142292689047200000F09BF810BDFA
:1023A00010B5040094F8FC01801E01280ED848885E
:1023B00001280AD10020C4F804022000D4F8142215
:1023C00092689047200000F085F802E0200000F0BD
:1023D00015F810BD0A7802704A7842708A78CB7876
:1023E00012EB032242800A794B7912EB032282809E
:1023F0008A79C97912EB0121C180704710B50400B8
:1024000080212000FFF70EF900212000FFF70AF9D4
:1024100010BDF8B504000D0017000026002C1AD0DE
:10242000200000F019F84000801C38803888F6B28F
:102430007055761C0320F6B27055761C08E02078A3
:10244000F6B27055641C761C0020F6B27055761CEE
:1024500020780028F3D1F1BD002101E0491C401C87
:102460000278002AFAD10800C0B2704780B5022372
:10247000C0F8F43192B2826192B2C26113009BB291
:102480000A000021FFF73AF9002002BD80B51300D1
:102490009BB20A000021FFF731F9002002BD80B590
:1024A0000323C0F8F43192B2C0F8082192B2C0F808
:1024B0000C2113009BB20A000021FFF73EF9002017
:1024C00002BD80B513009BB20A000021FFF735F969
:1024D000002002BD80B50421C0F8F41100230022C1
:1024E0000021FFF70BF9002002BD80B50521C0F8DF
:1024F000F411002300220021FFF71FF9002002BD84
:1025000080B51D48006850F010001B49086003208A
:10251000FFF7DAF9002000F004F801F0B9F9002023
:1025200002BD10B504004FF47A7014490978B0FB6D
:10253000F1F013490968B1FBF0F0FFF7DFF900286B
:1025400001D001200CE0102C09D2002221005FF004
:10255000FF30FFF7BDF90B480460002000E00120C8
:1025600010BD09480068054909780818064908603F
:102570007047054800687047002002405C01002059
:1025800004000020000000208820002080B50022E8
:1025900007490848FFF7DAF907490648FFF7EEF957
:1025A0000649044801F0ECFA0248FFF7F2F901BDD0
:1025B00028010020C019002014000020180100206C
:1025C00070B582B0040000252078C00740F18480F7
:1025D000DFF86806006810F00C0004280BD0DFF864
:1025E0005C06006810F00C0008280ED1DFF84C06DD
:1025F0000068C00309D5DFF84006006880036BD58A
:102600006068002868D1012002E26068B0F5803F70
:1026100008D1DFF82406006850F48030DFF818167F
:10262000086038E06068002810D1DFF80C06006808
:1026300030F48030DFF800160860DFF8FC05006831
:1026400030F48020DFF8F015086024E06068B0F511
:10265000A02F10D1DFF8E005006850F48020DFF8EB
:10266000D8150860DFF8D005006850F48030DFF836
:10267000C81508600FE0DFF8C005006830F480304E
:10268000DFF8B4150860DFF8B005006830F480208A
:10269000DFF8A4150860606800280ED0FFF769FF16
:1026A0000500DFF894050068800315D4FFF761FF8B
:1026B000401B6528F5D30320AAE1FFF75AFF050068
:1026C000DFF874050068800306D5FFF752FF401B52
:1026D0006528F5D303209BE12078800726D5DFF815
:1026E0005C05006810F00C0F0BD0DFF85005006897
:1026F00010F00C00082833D1DFF840050068C00353
:102700002ED4DFF834050068800704D5206901283D
:1027100001D001207CE1DFF82005006830F0F800EE
:10272000616950EAC100DFF81015086020780007E1
:102730004ED5A069002800F081800120DFF80C153B
:102740000860FFF716FF0500DFF8FC04006880074B
:102750003BD4FFF70EFF401B0328F5D3032057E1BE
:10276000206900281ED00120DFF8E4140860FFF77C
:1027700000FF0500DFF8C0040068800706D4FFF7FB
:10278000F8FE401B0328F5D3032041E1DFF8A8043D
:10279000006830F0F800616950EAC100DFF8981471
:1027A0000860C3E70020DFF8A8140860FFF7E1FE27
:1027B0000500DFF8840400688007B7D5FFF7D9FE6D
:1027C000401B0328F5D3032022E1012000F022FA68
:1027D0002078400740F1B9800026DFF878040068CF
:1027E000C0000FD4DFF86C04006850F08050DFF8B0
:1027F00064140860DFF85C04006810F080500090FA
:1028000000980126DFF850040068C00529D4DFF8DD
:102810004804006850F48070DFF83C140860FFF74B
:10282000A8FE0500DFF830040068C00519D4FFF7E2
:10283000A0FE401B6528F5D30320E9E00020DFF867
:102840000C140860FFF795FE0500DFF8FC03006834
:102850008007BDD5FFF78DFE401B0328F5D303206D
:10286000D6E0E068012808D1DFF8F003006850F0F6
:102870000100DFF8E813086037E0E068002810D1B5
:10288000DFF8D803006840084000DFF8D013086084
:10289000DFF8C803006830F00400DFF8C0130860F8
:1028A00023E0E068052810D1DFF8B003006850F09D
:1028B0000400DFF8A8130860DFF8A003006850F0F8
:1028C0000100DFF8981308600FE0DFF8900300685C
:1028D00040084000DFF884130860DFF880030068D8
:1028E00030F00400DFF874130860E068002810D0AE
:1028F000FFF73FFE0500DFF864030068800719D486
:10290000FFF737FE401B41F289318842F3D30320A1
:102910007EE0FFF72EFE0500DFF840030068800729
:1029200008D5FFF726FE401B41F289318842F3D3D8
:1029300003206DE0F6B2012E07D1DFF8180300681E
:1029400030F08050DFF80C130860E06900285ED09A
:10295000DFF8E802006810F00C00082855D0E069A4
:1029600002283FD10020DFF8F8120860FFF701FECF
:102970000500DFF8C4020068800106D5FFF7F9FD05
:10298000401B0328F5D3032042E0206AB0F5803FC6
:1029900009D1DFF8A802006830F40030A1680843CC
:1029A000DFF898120860DFF89402006830F47410C1
:1029B000216A0843616A0843DFF880120860012039
:1029C000DFF89C120860FFF7D4FD0500DFF868020D
:1029D000006880011BD4FFF7CCFD401B0328F5D312
:1029E000032015E00020DFF878120860FFF7C1FD32
:1029F0000500DFF844020068800108D5FFF7B9FD43
:102A0000401B0328F5D3032002E0012000E0002052
:102A100076BD70B504000D000026DFF8480200689E
:102A200010F00700A84211D2DFF838020068C00891
:102A3000C0002843DFF82C120860DFF82802006885
:102A400010F00700A84201D00120A1E02078800703
:102A500009D5DFF8E801006830F0F000A16808430C
:102A6000DFF8D81108602078C00756D560680128C3
:102A700006D1DFF8C4010068800311D4012087E08B
:102A80006068022806D1DFF8B0010068800107D431
:102A900001207DE068480068800701D4012077E0CC
:102AA00066480068800880006168084363490860E0
:102AB000FFF75FFD0600606801280ED15F480068DF
:102AC00010F00C00042828D0FFF753FD801B41F2C2
:102AD00089318842F2D303205AE0606802280ED17F
:102AE0005648006810F00C00082816D0FFF741FD8A
:102AF000801B41F289318842F2D3032048E04F48DD
:102B0000006810F00C0F08D0FFF733FD801B41F276
:102B100089318842F3D303203AE05248006810F02C
:102B2000070085420ED24F480068C008C000284305
:102B30004C4908604B48006810F00700A84201D0DB
:102B4000012025E02078400707D53C48006830F494
:102B5000E060E1680843394908602078000708D53B
:102B60003648006830F46050216950EAC1003349AA
:102B7000086000F00EF83C49304A1268C2F30312B4
:102B8000515CC8402F4908600020FFF7CAFC0020B4
:102B900070BD00B585B001A834491022FEF704FECF
:102BA00033480088ADF800000020002000200021FC
:102BB00000202248006810F00C01042902D00829E6
:102BC00002D016E01E4815E001A9C0F38342515C13
:102BD000C0030AD56846194A1268C2F34042105C25
:102BE000174A5143B1FBF0F002E0224800FB01F02C
:102BF00000E0134805B000BD12480068704780B57A
:102C0000FFF7FAFF1C490D4A1268C2F3C222515C59
:102C1000C84002BD81B00B490968C9084FF47A72F7
:102C2000B1FBF2F14843009000BF0098411E0091B3
:102C30000028F9D101B07047001002400410024092
:102C400000127A0004000020241002408004424256
:102C5000000042421C100240007000402010024060
:102C600060004242002002407041000850410008CC
:102C7000FE17000800093D00C841000870B582B089
:102C80000400002600202078C00763D50025764880
:102C90000068C0000CD47448006850F0805072493D
:102CA00008607148006810F080500090009801257D
:102CB0006E480068C00513D46C48006850F48070FA
:102CC0006A490860FFF755FC060068480068C005BF
:102CD00006D4FFF74EFC801B6528F6D3032050E096
:102CE0006348006810F44070002822D0616811F435
:102CF000407188421DD05E48006830F44070012168
:102D00005C4A116000215B4A116059490860C007A4
:102D10000FD5FFF72EFC060055480068800708D441
:102D2000FFF727FC801B41F289318842F4D303204E
:102D300027E04F48006830F44070616808434C4910
:102D40000860EDB2012D05D14748006830F0805091
:102D5000454908602078800707D54748006830F467
:102D60004040A1680843444908602078C00607D560
:102D70004148006830F48000E16808433E4908603B
:102D8000002076BD10B586B0040001A83B49102292
:102D9000FEF70AFD3A480088ADF800000020002147
:102DA000002300220020012C2BD0022C4ED0102C0E
:102DB00057D1314A1268334B1B68DB0120D501A87B
:102DC000C2F383431B5CD0030DD568462A4C2468AC
:102DD000C4F34044205CD20308D52B49B1FBF0F08A
:102DE00003FB00F102E0294800FB03F122480068E0
:102DF000400201D5080003E048000321B0FBF1F0D8
:102E00002FE01B48026840F202301040B0F5817F8D
:102E100002D14FF4004018E012F44070B0F5007F8A
:102E200006D11B480068800702D549F640400CE0F7
:102E300012F44070B0F5407F06D11248006880035C
:102E400002D54FF2244000E000200AE0FFF7D7FE51
:102E500009490968C1F38131491C4900B0FBF1F00F
:102E6000FFE706B010BD00001C10024000700040DB
:102E70002010024040044242041002406041000819
:102E80008E3800080010024000127A0000093D0050
:102E90002410024010B504000020002C01D10120B4
:102EA00068E0607C002804D100202074200000F03D
:102EB00032FD02206074200000F062F8002803D088
:102EC00004206074012055E0200000F077F800280D
:102ED00003D00420607401204CE020684068C008E2
:102EE000C00021684860A068002807D0DFF888008B
:102EF000006840084000DFF880100860DFF87C00C0
:102F0000006830F46070A1680843DFF87010086052
:102F1000606810F1010F01D0606809E00120FFF73F
:102F200031FF002803D104206074012022E0401EFC
:102F3000216889680909090151EA104122689160F4
:102F40002168C968090C090480B208432168C86077
:102F5000200000F04DF8002803D004206074012008
:102F600008E00020E073012060730120A0730120BD
:102F70006074002010BD0000306C00402C6C0040DC
:102F800038B504000025002C01D1012015E020688F
:102F9000406830F0080021684860FFF7EAFA050051
:102FA00020684068000707D4FFF7E3FA401BB0F53C
:102FB0007A7FF5D9032000E0002032BD38B5040047
:102FC0000025FFF7D6FA050020684068800607D480
:102FD000FFF7CFFA401BB0F57A7FF5D9032006E062
:102FE0002068406850F0100021684860002032BD21
:102FF00038B5040000252068406830F010002168D2
:103000004860FFF7B6FA050020684068800607D4DC
:10301000FFF7AFFA401BB0F57A7FF5D9032000E047
:10302000002032BDF8B4002500240025002200262F
:10303000002307E0DFF8C8512D6835EA0404704D1D
:103040002C605B1C102B80F0C680012414FA03F561
:103050000C682C40AC42F4D14E68002E27D0012ED3
:103060001AD0022E1DD0032E2FD0112E16D0122EC4
:103070001AD0644FBE421AD0634FBE4217D0634F7E
:10308000BE4214D0624FBE4211D0624FBE420ED03B
:10309000614FBE420BD01AE0CA6818E0CA68121D20
:1030A00015E0CA68083212E0CA680C320FE08A687C
:1030B000002A01D1042207E08A68012A02D10822ED
:1030C000056101E00822456101E00022FFE7FF2CD5
:1030D00001D8050000E0051DFF2C01D89E0002E08C
:1030E000B3F10806B6002F685FF00F0C1CFA06FC5F
:1030F00037EA0C0712FA06F63E432E604D68ED00E3
:103100009FD5464D2D6855F00105444E3560434D21
:103110002D6815F001050095009D414D9E0855F85C
:1031200026500F2613F00307FFB2BF00BE40B54381
:103130003C4EB04201D100260FE03B4EB04201D1DF
:1031400001260AE0394EB04201D1022605E0384E90
:10315000B04201D1032600E0042613F00307FFB2BA
:10316000BF00BE4035432E4E9F0846F827504D689D
:10317000ED0305D52F4D2D6825432E4E356004E017
:103180002C4D2D68A5432B4E35604D68AD0305D5FC
:10319000294D2D682543284E356004E0264D2D68C5
:1031A000A543254E35604D68ED0205D5234D2D68AC
:1031B0002543224E356004E0204D2D68A5431F4E67
:1031C00035604D68AD027FF535AF0D4D2D682C4350
:1031D0000B4D2C6035E7F1BC7047806889B208421E
:1031E00001D0012000E00020C0B27047D2B2002A16
:1031F00002D089B2016102E089B20904016170471D
:103200000C040140000011100000121000002110F9
:10321000000022100000311000003210181002408F
:103220000800014000080140000C0140001001406E
:10323000001401400004014004040140080401405E
:1032400080B54EF6602000F015FA1221202000F023
:103250004BFD0021212000F047FD0021222000F03D
:1032600043FD0221232000F03FFD0021242000F037
:103270003BFD0621262000F037FD3E21272000F0EF
:1032800033FDFF213C2000F02FFD00213D2000F008
:103290002BFD00213D2000F027FD2021312000F0F2
:1032A00023FD0121222000F01FFD3020DFF89413C0
:1032B00008708E2000F01DFADFF88813487089200E
:1032C00000F017FADFF87C138870BE2000F011FAC6
:1032D000DFF87013C870D62000F00BFADFF8641323
:1032E00008710521DFF85C0300F0C1FA2A20DFF83D
:1032F000541308700521DFF84C0300F0B8FA01BD43
:103300000020DFF8441308700220DFF83813DFF8DC
:10331000382312785054DFF830030078401CDFF86F
:10332000281308700920DFF81C13DFF81C2312781B
:103330005054DFF814030078401CDFF80C130870B9
:10334000EF20DFF80013DFF8002312785054DFF885
:10335000F8020078401CDFF8F0120870FF20B9492D
:10336000B94A12785054B8480078401CB6490870E1
:10337000C020B449B44A12785054B3480078401C75
:10338000B1490870AA20AF49AF4A12785054AE48EC
:103390000078401CAC4908701820AA49AA4A127843
:1033A0005054A9480078401CA74908700020A5493E
:1033B000A54A12785054A4480078401CA2490870CD
:1033C0000220A049A04A127850549F480078401C1F
:1033D0009D49087001209B499B4A127850549A4895
:1033E0000078401C9849087005209649964A127842
:1033F000505495480078401C934908700920914921
:10340000914A1278505490480078401C8E490870B8
:1034100008208C498C4A127850548B480078401C04
:10342000894908706E208749874A12785054864827
:103430000078401C8449087052208249824A1278E0
:10344000505481480078401C7F49087046207D49CF
:103450007D4A127850547C480078401C7A490870A4
:1034600032207849784A1278505477480078401CC6
:103470007549087034207349734A12785054724861
:103480000078401C704908704C206E496E4A1278D2
:1034900050546D480078401C6B49087030206949D1
:1034A000694A1278505468480078401C6649087090
:1034B00031206449644A1278505463480078401CB3
:1034C000614908705F4840780A305E49487055206D
:1034D0005C495D4A127850545B480078401C5A4958
:1034E000087055205749584A127850545648007869
:1034F000401C5549087055205249534A127850547F
:1035000051480078401C50490870704780B54F48BA
:103510004F4909780A5C4C4801784A4800F02DF977
:1035200001BD80B55FF480104A4908604A484849A7
:103530000978095C252000F0D7FB6E21272000F0D8
:10354000D3FBE22000F088F9E12000F085F900F0DB
:10355000F1FBA02000F064FB0020404908700AE065
:1035600038483E490978085C00F05AFB3B4800782F
:10357000401C3A4908703948007833490978884234
:10358000EED300F0DCFB1221202000F0ADFB102078
:103590003049086041F2707000F06CF85FF4801000
:1035A0002C49086001BD80B51321202000F09CFB50
:1035B0003F21222000F098FB10202649086020219E
:1035C0002748FFF70AFE00281CD1264800F052F8D1
:1035D0002021612000F062FB234908701B481C4930
:1035E00009780A5C2021214800F003F900F00BF86B
:1035F0006E21272000F078FBE22000F02DF9E12079
:1036000000F02AF901BD80B51848407B6E2817D11B
:103610001648807B522813D11448C07B46280FD10E
:103620001248007C35280BD11048407C322807D145
:103630000E48807C382803D101210D4800F0E6FBBC
:1036400001BD00005420002092200020D441000839
:1036500094200020100C0140D0410008932000204D
:10366000000C0140E0930400912000200420002081
:103670001D20002000E0401E0028FCD1704770B4DF
:103680000B00591EDBB2002B31D00378401C002404
:10369000E4B2082CF4DA1578EDB2ED09167876006C
:1036A00016705678360603D5167856F00106167051
:1036B0005678760056709678360603D5567856F0CA
:1036C00001065670967876009670EDB2DBB213F074
:1036D0000106B54207D0957895F05B059570557851
:1036E00095F006055570641CDBB25B08D0E770BC32
:1036F00070470021020601D551F00101420601D5B3
:1037000051F00201820601D551F00401C20601D533
:1037100051F00801020701D551F01001420701D50F
:1037200051F02001820701D551F04001C00701D5B9
:1037300051F080010800C0B2704710B40CE01406CC
:1037400004D592F0110204785C40047052005B00D2
:10375000DBB2002BF3D1401C0B00591EDBB2002B57
:1037600001D00123F4E710BC704780B5C0B2FFF769
:10377000C0FF50F00200C0B202BD2DE9F0410400CC
:103780000D001600B5F103085FFA88F818EB040283
:103790004146C9B22000FFF772FF00270CE05FFA34
:1037A00088F818F80400FFF7A4FF5FFA88F808F813
:1037B00004007F1C18F10108FFB2032FEFDB30007B
:1037C000C0B2FFF7D2FF0200D2B22900C9B2200076
:1037D000FFF7B3FF002706E0FFB2385DFFF789FF70
:1037E000FFB238557F1CFFB2EDB2AF42F4D3BDE853
:1037F000F0812DE9F04104000D001600B5F1030839
:10380000002706E0FFB2385DFFF773FFFFB23855BF
:103810007F1CFFB2EDB2AF42F4D33000C0B2FFF76D
:10382000A4FF0200D2B22900C9B22000FFF785FF31
:1038300000270CE05FFA88F818F80400FFF759FF3A
:103840005FFA88F808F804007F1C18F10108FFB23D
:10385000032FEFDBBDE8F08110B5040000F06AFA39
:103860002000C0B200F0DCF900F069FA10BD38B5F4
:1038700004000D0000F05EFA207800F0D1F9641C1D
:103880006D1EEDB2002DF7D100F059FA31BD0102E5
:1038900080B52C48006850F001002A49086029488A
:1038A000006810F00100009000980320FEF70CF86B
:1038B000002200217FF00B00FEF70AF80022002111
:1038C0007FF00A00FEF704F8002200217FF00900D3
:1038D000FDF7FEFF002200217FF00400FDF7F8FF56
:1038E000002200217FF00300FDF7F2FF00220021FB
:1038F0007FF00100FDF7ECFF002200215FF0FF30B8
:10390000FDF7E6FF1048006830F0E06050F000700E
:103910000D49086001BD80B500680C49884210D18E
:1039200000F098FA0A48006850F000600849086002
:103930000748006810F000600090009801200549D9
:10394000086001BD1810024004000140002800403A
:103950001C1002403C04424270B505000024287C43
:1039600000280ED14FF40073022281212800FDF7B8
:1039700019FE4FF40073022201212800FDF712FE08
:103980000BE04023022281212800FDF70BFE40239B
:10399000022201212800FDF705FE082303228221CF
:1039A0002800FDF7FFFD4FF40770FDF7ECFEC5F8AA
:1039B0001802D5F81802002801D101241EE0D5F81C
:1039C0001862D5F81C02006880470020C6F814026F
:1039D0000020C6F81802287C002808D14FF4007394
:1039E000D6F8042201212800FDF7A7FE06E04023B7
:1039F000D6F8042201212800FDF79FFE2000C0B266
:103A000070BD38B50400002581212000FDF7EDFDD3
:103A100001212000FDF7E9FD82212000FDF7E5FDF1
:103A2000D4F8180200280AD0D4F81C024068804755
:103A3000D4F81802FDF7B6FE0020C4F818022800DA
:103A4000C0B232BD70B504000D00D4F818622878F9
:103A500010F06000C0B2002828D0202832D1E888B9
:103A600000281BD0287800060CD5EA883100687839
:103A7000D4F81C329B689847EA8831002000FEF792
:103A8000F5FC12E0687886F80002E88886F8010202
:103A9000EA8831002000FEF702FD06E0002229003E
:103AA0006878D4F81C329B6898470BE068780A283D
:103AB00002D00B2806D005E001222C492000FEF799
:103AC000D5FCFFE7002070BDD0F81812D0F818021E
:103AD000002804D00020C1F81402002000E00220D9
:103AE000704738B50400D4F81852C9B22000FDF769
:103AF00043FEC5F80C02D4F81802002809D015F5C9
:103B00000371D5F80402D4F81C22D2689047002033
:103B100000E0022032BD10B50300D3F81842D3F8FC
:103B20001C02002810D094F80002FF280CD094F852
:103B3000012292B2210094F80002D3F81C329B6853
:103B40009847FF2084F80002002010BD4321018027
:103B50000748704743210180064870474321018090
:103B6000054870470A2101800448704795200020CD
:103B7000900000204C000020D4000020080000200D
:103B80000222002902D0C0F81C1200221000C0B28C
:103B90007047D0F81802C0F8081292B2C0F810228C
:103BA00000207047D0F81802C0F8041200207047B7
:103BB00080B5D0F81812D0F81822002A12D0D1F807
:103BC0001422002A0CD10122C1F81422D1F810329B
:103BD0009BB2D1F808228121FDF790FD002002E080
:103BE000012000E0022002BD80B5D0F81812D0F804
:103BF0001822002A12D0027C002A07D14FF4007349
:103C0000D1F804220121FDF798FD05E04023D1F809
:103C100004220121FDF791FD002000E0022002BDF9
:103C200038B50400002502E014F0FE046D1CEDB26E
:103C3000082D22DA5FF4000043490860012000F0FB
:103C400071F8200604D54FF480703F49086003E006
:103C50005FF080703C490860012000F063F880202C
:103C600039490860012000F05DF8640037480068B9
:103C70004006D9D554F00104D8E75FF4000032497A
:103C80000860012000F04EF85FF080702E49086057
:103C9000012000F047F82000C0B232BD70B504002A
:103CA0000D005FF0007028490860012000F03AF82C
:103CB0002000C0B2FFF7B4FF0600002406E0FF209A
:103CC000FFF7AEFF2249E4B26054641CE4B2EDB2E7
:103CD000AC42F4D34FF400701B490860012000F09F
:103CE00021F83000C0B270BD38B504000D005FF09F
:103CF000007015490860012000F014F854F020000D
:103D0000C0B2FFF78DFF04002800C0B2FFF788FFA4
:103D10004FF400700C490860012000F003F8200007
:103D2000C0B232BD002101E000BF491C80B2814217
:103D3000FADB70475FF000700349086070474FF48A
:103D40000070014908607047100C0140080C0140E8
:103D50000420002080B5002238493948FFF719FFB8
:103D600038493748FFF71EFF002002BD002070478A
:103D7000C0B2002810D001280FD002280ED003288E
:103D80000DD004280CD020280BD021280AD02228BE
:103D900009D0232808D008E007E006E005E004E0A9
:103DA00003E002E001E000E0FFE70020704738B5E3
:103DB000096800221DE052B2135C234C234D2D787C
:103DC0002B55224B1B785B1C204C23701E4B1F4C29
:103DD0002478E31813F8013C0D2B03D01B4B1B7800
:103DE0001E2B05D101231A4C23700023174C23707E
:103DF000521C52B249B28A42DDDB01001048FFF783
:103E0000D1FE0F48FFF7F0FE002032BD80B5030061
:103E100000200B48D0F81802D0F81402002801D076
:103E2000012009E00A0092B219000548FFF7B1FE2F
:103E30000348FFF7BDFEC0B202BD0000600D0020C8
:103E4000C0190020600500203420002090200020B0
:103E50008F200020012001490860704720000E4299
:103E6000122008802848704704200880274870479F
:103E700080B5C0B2002805D10A0025492548FEF7C3
:103E8000C8FA04E00A0022492248FEF7C2FA204894
:103E900002BD80B50A001E491F48FEF7BAFA1C4849
:103EA00002BD80B5C0B2002805D10A0018491B48E0
:103EB000FEF7AFFA04E00A0015491848FEF7A9FA20
:103EC000134802BD80B5C0B2002805D10A001049D0
:103ED0001348FEF79EFA04E00A000D491048FEF769
:103EE00098FA0B4802BD80B5C0B2002805D10A007F
:103EF00007490C48FEF78DFA04E00A000449094816
:103F0000FEF787FA024802BD440100205801002054
:103F1000041E0020244100083C41000880410008A4
:103F2000B0410008904100081348006850F00100BB
:103F30001149086011480068114908400F4908609C
:103F40000D4800680F4908400B4908600A4800689E
:103F500030F48020084908600848006830F4FE000A
:103F6000064908605FF41F00074908605FF00060C1
:103F7000064908607047000000100240041002402B
:103F80000000FFF8FFFFF6FE0810024008ED00E019
:103F9000433A5C55736572735C566C6164696D6914
:103FA000725C4465736B746F705CD1F2E0F2FCFF7D
:103FB000202D2041445620F1E2FFE7FC5C53746D54
:103FC0003332463130335F4E726632344C30315CBE
:103FD0005372635C757362645F636F6E662E630019
:103FE000433A5C55736572735C566C6164696D69C4
:103FF000725C4465736B746F705CD1F2E0F2FCFF2D
:10400000202D2041445620F1E2FFE7FC5C53746D03
:104010003332463130335F4E726632344C30315C6D
:104020005372635C6D61696E2E63000019E050F895
:10403000041BCB0744BFA9F101035918121F002329
:10404000042A41F8043BF9D25FEA827C0B4604D58E
:104050004FF0000CA1F800C09B1CD10744BF002109
:10406000197050F8042B002AE1D170477047FEE721
:10407000FEE7FEE7FEE770477047704780B5FEF742
:1040800070FAFDF75FFC01BD80B50248FCF7A6FDA4
:1040900001BD00006015002010B5074979441831B2
:1040A000064C7C44163404E00A68081D5118884701
:1040B0000146A142F8D110BD080000002400000014
:1040C0006DFFFFFF381B00006005002000000000AE
:1040D00097D2FFFFAC0100009C010000000000200F
:1040E00000F00BF8002801D0FFF7D6FF0020C046F3
:1040F000C046FDF799FD00F002F80120704700F07E
:1041000001B800000746384600F002F8FBE700005F
:1041100080B5C046C046024A11001820ABBEFBE77E
:104120002600020053544D33322056697274756173
:104130006C20436F6D506F727400000053544D69D2
:1041400063726F656C656374726F6E696373000090
:1041500002030405060708090A0B0C0D0E0F1010C8
:1041600002030405060708090A0B0C0D0E0F1010B8
:104170000000000000000000010203040607080917
:1041800030303030303030303030314100000000DD
:1041900043444320496E74657266616365000000A4
:1041A0000148804701480047293F0008BD410008F9
:1041B00043444320436F6E6669670000C046C046B3
:1041C000C046C046FFF78CFF000000000102030458
:1041D000021A500025262700FFF7FEBFFFF7FEBF9B
:1041E000FFF7FEBFFFF7FEBFFFF7FEBFFFF7FEBF03
:1041F000FFF7FEBFFFF7FEBFFFF7FEBFFFF7FEBFF3
:10420000FFF7FEBFFFF7FEBFFFF7FEBFFFF7FEBFE2
:10421000FFF7FEBFFFF7FEBFFFF7FEBFFFF7FEBFD2
:10422000FFF7FEBFFFF7FEBFFFF7FEBFFFF7FEBFC2
:10423000FFF7FEBFFFF7FEBFFFF7FEBFFFF7FEBFB2
:10424000FFF7FEBFFFF7FEBFFFF7FEBFFFF7FEBFA2
:10425000FFF7FEBFFFF7FEBFFFF7FEBFFFF7FEBF92
:10426000FFF7FEBFFFF7FEBFFFF7FEBFFFF7FEBF82
:10427000FFF7FEBFFFF7FEBFFFF7FEBFFFF7FEBF72
:10428000131000011005A24A040A0600020B134095
:104290000105100759390008033A00084504211F99
:1042A0001003173B0008C90C52E3106101125518A6
:1042B000124D04125D04126504100D090243000240
:1042C0000100C0320904000001020B101E05240089
:1042D0001001052401000104240202052406000146
:1042E0000705820308001009040100020A4E1002AB
:1042F000070501027B200107058107F228004422FF
:104300004007228107200100090744F2130444F208
:1043100007FF441003553D00086D0412710412AFED
:10432000041003613E000869041293041271041220
:10433000A30412C50412E70412124310060202007D
:0E434000408304405779170203451304035AC3
:04000005080041BDF1
:00000001FF
